{
  "_format": "hh-sol-artifact-1",
  "contractName": "ReputationSystem",
  "sourceName": "contracts/ReputationSystem.sol",
  "abi": [
    {
      "inputs": [],
      "stateMutability": "nonpayable",
      "type": "constructor"
    },
    {
      "anonymous": false,
      "inputs": [
        {
          "indexed": true,
          "internalType": "address",
          "name": "account",
          "type": "address"
        },
        {
          "indexed": false,
          "internalType": "bool",
          "name": "isNode",
          "type": "bool"
        },
        {
          "indexed": false,
          "internalType": "uint256",
          "name": "newScore",
          "type": "uint256"
        }
      ],
      "name": "ReputationUpdated",
      "type": "event"
    },
    {
      "anonymous": false,
      "inputs": [
        {
          "indexed": true,
          "internalType": "address",
          "name": "account",
          "type": "address"
        },
        {
          "indexed": false,
          "internalType": "bool",
          "name": "isNode",
          "type": "bool"
        },
        {
          "indexed": false,
          "internalType": "bool",
          "name": "success",
          "type": "bool"
        }
      ],
      "name": "TaskRecorded",
      "type": "event"
    },
    {
      "inputs": [],
      "name": "FAILURE_PENALTY",
      "outputs": [
        {
          "internalType": "uint256",
          "name": "",
          "type": "uint256"
        }
      ],
      "stateMutability": "view",
      "type": "function"
    },
    {
      "inputs": [],
      "name": "INITIAL_SCORE",
      "outputs": [
        {
          "internalType": "uint256",
          "name": "",
          "type": "uint256"
        }
      ],
      "stateMutability": "view",
      "type": "function"
    },
    {
      "inputs": [],
      "name": "MAX_SCORE",
      "outputs": [
        {
          "internalType": "uint256",
          "name": "",
          "type": "uint256"
        }
      ],
      "stateMutability": "view",
      "type": "function"
    },
    {
      "inputs": [],
      "name": "SUCCESS_BOOST",
      "outputs": [
        {
          "internalType": "uint256",
          "name": "",
          "type": "uint256"
        }
      ],
      "stateMutability": "view",
      "type": "function"
    },
    {
      "inputs": [
        {
          "internalType": "address",
          "name": "",
          "type": "address"
        }
      ],
      "name": "agentReputations",
      "outputs": [
        {
          "internalType": "uint256",
          "name": "score",
          "type": "uint256"
        },
        {
          "internalType": "uint256",
          "name": "totalTasks",
          "type": "uint256"
        },
        {
          "internalType": "uint256",
          "name": "successfulTasks",
          "type": "uint256"
        },
        {
          "internalType": "uint256",
          "name": "failedTasks",
          "type": "uint256"
        },
        {
          "internalType": "uint256",
          "name": "lastUpdated",
          "type": "uint256"
        }
      ],
      "stateMutability": "view",
      "type": "function"
    },
    {
      "inputs": [
        {
          "internalType": "address",
          "name": "agent",
          "type": "address"
        }
      ],
      "name": "getAgentReputation",
      "outputs": [
        {
          "components": [
            {
              "internalType": "uint256",
              "name": "score",
              "type": "uint256"
            },
            {
              "internalType": "uint256",
              "name": "totalTasks",
              "type": "uint256"
            },
            {
              "internalType": "uint256",
              "name": "successfulTasks",
              "type": "uint256"
            },
            {
              "internalType": "uint256",
              "name": "failedTasks",
              "type": "uint256"
            },
            {
              "internalType": "uint256",
              "name": "lastUpdated",
              "type": "uint256"
            }
          ],
          "internalType": "struct ReputationSystem.Reputation",
          "name": "",
          "type": "tuple"
        }
      ],
      "stateMutability": "view",
      "type": "function"
    },
    {
      "inputs": [
        {
          "internalType": "address",
          "name": "agent",
          "type": "address"
        }
      ],
      "name": "getAgentScore",
      "outputs": [
        {
          "internalType": "uint256",
          "name": "",
          "type": "uint256"
        }
      ],
      "stateMutability": "view",
      "type": "function"
    },
    {
      "inputs": [
        {
          "internalType": "address",
          "name": "node",
          "type": "address"
        }
      ],
      "name": "getNodeReputation",
      "outputs": [
        {
          "components": [
            {
              "internalType": "uint256",
              "name": "score",
              "type": "uint256"
            },
            {
              "internalType": "uint256",
              "name": "totalTasks",
              "type": "uint256"
            },
            {
              "internalType": "uint256",
              "name": "successfulTasks",
              "type": "uint256"
            },
            {
              "internalType": "uint256",
              "name": "failedTasks",
              "type": "uint256"
            },
            {
              "internalType": "uint256",
              "name": "lastUpdated",
              "type": "uint256"
            }
          ],
          "internalType": "struct ReputationSystem.Reputation",
          "name": "",
          "type": "tuple"
        }
      ],
      "stateMutability": "view",
      "type": "function"
    },
    {
      "inputs": [
        {
          "internalType": "address",
          "name": "node",
          "type": "address"
        }
      ],
      "name": "getNodeScore",
      "outputs": [
        {
          "internalType": "uint256",
          "name": "",
          "type": "uint256"
        }
      ],
      "stateMutability": "view",
      "type": "function"
    },
    {
      "inputs": [
        {
          "internalType": "address",
          "name": "agent",
          "type": "address"
        }
      ],
      "name": "initializeAgent",
      "outputs": [],
      "stateMutability": "nonpayable",
      "type": "function"
    },
    {
      "inputs": [
        {
          "internalType": "address",
          "name": "node",
          "type": "address"
        }
      ],
      "name": "initializeNode",
      "outputs": [],
      "stateMutability": "nonpayable",
      "type": "function"
    },
    {
      "inputs": [
        {
          "internalType": "address",
          "name": "",
          "type": "address"
        }
      ],
      "name": "nodeReputations",
      "outputs": [
        {
          "internalType": "uint256",
          "name": "score",
          "type": "uint256"
        },
        {
          "internalType": "uint256",
          "name": "totalTasks",
          "type": "uint256"
        },
        {
          "internalType": "uint256",
          "name": "successfulTasks",
          "type": "uint256"
        },
        {
          "internalType": "uint256",
          "name": "failedTasks",
          "type": "uint256"
        },
        {
          "internalType": "uint256",
          "name": "lastUpdated",
          "type": "uint256"
        }
      ],
      "stateMutability": "view",
      "type": "function"
    },
    {
      "inputs": [],
      "name": "orchestrator",
      "outputs": [
        {
          "internalType": "address",
          "name": "",
          "type": "address"
        }
      ],
      "stateMutability": "view",
      "type": "function"
    },
    {
      "inputs": [
        {
          "internalType": "address",
          "name": "agent",
          "type": "address"
        }
      ],
      "name": "recordAgentTaskFailure",
      "outputs": [],
      "stateMutability": "nonpayable",
      "type": "function"
    },
    {
      "inputs": [
        {
          "internalType": "address",
          "name": "agent",
          "type": "address"
        }
      ],
      "name": "recordAgentTaskSuccess",
      "outputs": [],
      "stateMutability": "nonpayable",
      "type": "function"
    },
    {
      "inputs": [
        {
          "internalType": "address",
          "name": "node",
          "type": "address"
        }
      ],
      "name": "recordNodeTaskFailure",
      "outputs": [],
      "stateMutability": "nonpayable",
      "type": "function"
    },
    {
      "inputs": [
        {
          "internalType": "address",
          "name": "node",
          "type": "address"
        }
      ],
      "name": "recordNodeTaskSuccess",
      "outputs": [],
      "stateMutability": "nonpayable",
      "type": "function"
    },
    {
      "inputs": [
        {
          "internalType": "address",
          "name": "newOrchestrator",
          "type": "address"
        }
      ],
      "name": "updateOrchestrator",
      "outputs": [],
      "stateMutability": "nonpayable",
      "type": "function"
    }
  ],
  "bytecode": "0x608060405234801561001057600080fd5b5033600260006101000a81548173ffffffffffffffffffffffffffffffffffffffff021916908373ffffffffffffffffffffffffffffffffffffffff160217905550611563806100616000396000f3fe608060405234801561001057600080fd5b50600436106101165760003560e01c8063cff5820b116100a2578063ddd5804111610071578063ddd58041146102e3578063de33037314610317578063ebeae58714610335578063f1d3bdd614610365578063f6155e381461038157610116565b8063cff5820b14610231578063d059353a1461024f578063d0c11aaa1461027f578063d91d6c66146102b357610116565b806380a45d81116100e957806380a45d81146101a35780638d8bb213146101bf5780639312cd82146101db578063b74795d9146101f7578063cb3b89d81461021557610116565b806327ff62231461011b57806337ed0d6a1461013957806350865ee614610157578063702e1fc114610173575b600080fd5b61012361039d565b60405161013091906111aa565b60405180910390f35b6101416103a3565b60405161014e91906111aa565b60405180910390f35b610171600480360381019061016c9190611228565b6103a8565b005b61018d60048036038101906101889190611228565b610526565b60405161019a91906112cc565b60405180910390f35b6101bd60048036038101906101b89190611228565b6105b0565b005b6101d960048036038101906101d49190611228565b610797565b005b6101f560048036038101906101f09190611228565b61086b565b005b6101ff610a4a565b60405161020c91906112f6565b60405180910390f35b61022f600480360381019061022a9190611228565b610a70565b005b610239610bec565b60405161024691906111aa565b60405180910390f35b61026960048036038101906102649190611228565b610bf1565b60405161027691906111aa565b60405180910390f35b61029960048036038101906102949190611228565b610c3d565b6040516102aa959493929190611311565b60405180910390f35b6102cd60048036038101906102c89190611228565b610c73565b6040516102da91906111aa565b60405180910390f35b6102fd60048036038101906102f89190611228565b610cbe565b60405161030e959493929190611311565b60405180910390f35b61031f610cf4565b60405161032c91906111aa565b60405180910390f35b61034f600480360381019061034a9190611228565b610cfa565b60405161035c91906112cc565b60405180910390f35b61037f600480360381019061037a9190611228565b610d85565b005b61039b60048036038101906103969190611228565b610f62565b005b61271081565b606481565b600260009054906101000a900473ffffffffffffffffffffffffffffffffffffffff1673ffffffffffffffffffffffffffffffffffffffff163373ffffffffffffffffffffffffffffffffffffffff1614610438576040517f08c379a000000000000000000000000000000000000000000000000000000000815260040161042f906113c1565b60405180910390fd5b6000600160008373ffffffffffffffffffffffffffffffffffffffff1673ffffffffffffffffffffffffffffffffffffffff1681526020019081526020016000206004015403610523576040518060a00160405280611388815260200160008152602001600081526020016000815260200142815250600160008373ffffffffffffffffffffffffffffffffffffffff1673ffffffffffffffffffffffffffffffffffffffff16815260200190815260200160002060008201518160000155602082015181600101556040820151816002015560608201518160030155608082015181600401559050505b50565b61052e611162565b6000808373ffffffffffffffffffffffffffffffffffffffff1673ffffffffffffffffffffffffffffffffffffffff1681526020019081526020016000206040518060a0016040529081600082015481526020016001820154815260200160028201548152602001600382015481526020016004820154815250509050919050565b600260009054906101000a900473ffffffffffffffffffffffffffffffffffffffff1673ffffffffffffffffffffffffffffffffffffffff163373ffffffffffffffffffffffffffffffffffffffff1614610640576040517f08c379a0000000000000000000000000000000000000000000000000000000008152600401610637906113c1565b60405180910390fd5b6000600160008373ffffffffffffffffffffffffffffffffffffffff1673ffffffffffffffffffffffffffffffffffffffff168152602001908152602001600020905080600101600081548092919061069890611410565b91905055508060030160008154809291906106b290611410565b919050555060c88160000154116106ca5760006106dc565b60c881600001546106db9190611458565b5b81600001819055504281600401819055508173ffffffffffffffffffffffffffffffffffffffff167f5215db09e2874c4a59d8fb9d326f5f48331aadf2e1a976fc8bbb77342fc682be6000806040516107369291906114a7565b60405180910390a28173ffffffffffffffffffffffffffffffffffffffff167f153faadb71307f5fb5e2e3207cd9ad3b621c207ffb7d426dcab46d37a87d485e6000836000015460405161078b9291906114d0565b60405180910390a25050565b600260009054906101000a900473ffffffffffffffffffffffffffffffffffffffff1673ffffffffffffffffffffffffffffffffffffffff163373ffffffffffffffffffffffffffffffffffffffff1614610827576040517f08c379a000000000000000000000000000000000000000000000000000000000815260040161081e906113c1565b60405180910390fd5b80600260006101000a81548173ffffffffffffffffffffffffffffffffffffffff021916908373ffffffffffffffffffffffffffffffffffffffff16021790555050565b600260009054906101000a900473ffffffffffffffffffffffffffffffffffffffff1673ffffffffffffffffffffffffffffffffffffffff163373ffffffffffffffffffffffffffffffffffffffff16146108fb576040517f08c379a00000000000000000000000000000000000000000000000000000000081526004016108f2906113c1565b60405180910390fd5b6000600160008373ffffffffffffffffffffffffffffffffffffffff1673ffffffffffffffffffffffffffffffffffffffff168152602001908152602001600020905080600101600081548092919061095390611410565b919050555080600201600081548092919061096d90611410565b919050555061098e6064826000015461098691906114f9565b612710611149565b81600001819055504281600401819055508173ffffffffffffffffffffffffffffffffffffffff167f5215db09e2874c4a59d8fb9d326f5f48331aadf2e1a976fc8bbb77342fc682be600060016040516109e99291906114a7565b60405180910390a28173ffffffffffffffffffffffffffffffffffffffff167f153faadb71307f5fb5e2e3207cd9ad3b621c207ffb7d426dcab46d37a87d485e60008360000154604051610a3e9291906114d0565b60405180910390a25050565b600260009054906101000a900473ffffffffffffffffffffffffffffffffffffffff1681565b600260009054906101000a900473ffffffffffffffffffffffffffffffffffffffff1673ffffffffffffffffffffffffffffffffffffffff163373ffffffffffffffffffffffffffffffffffffffff1614610b00576040517f08c379a0000000000000000000000000000000000000000000000000000000008152600401610af7906113c1565b60405180910390fd5b60008060008373ffffffffffffffffffffffffffffffffffffffff1673ffffffffffffffffffffffffffffffffffffffff1681526020019081526020016000206004015403610be9576040518060a001604052806113888152602001600081526020016000815260200160008152602001428152506000808373ffffffffffffffffffffffffffffffffffffffff1673ffffffffffffffffffffffffffffffffffffffff16815260200190815260200160002060008201518160000155602082015181600101556040820151816002015560608201518160030155608082015181600401559050505b50565b60c881565b6000600160008373ffffffffffffffffffffffffffffffffffffffff1673ffffffffffffffffffffffffffffffffffffffff168152602001908152602001600020600001549050919050565b60016020528060005260406000206000915090508060000154908060010154908060020154908060030154908060040154905085565b60008060008373ffffffffffffffffffffffffffffffffffffffff1673ffffffffffffffffffffffffffffffffffffffff168152602001908152602001600020600001549050919050565b60006020528060005260406000206000915090508060000154908060010154908060020154908060030154908060040154905085565b61138881565b610d02611162565b600160008373ffffffffffffffffffffffffffffffffffffffff1673ffffffffffffffffffffffffffffffffffffffff1681526020019081526020016000206040518060a0016040529081600082015481526020016001820154815260200160028201548152602001600382015481526020016004820154815250509050919050565b600260009054906101000a900473ffffffffffffffffffffffffffffffffffffffff1673ffffffffffffffffffffffffffffffffffffffff163373ffffffffffffffffffffffffffffffffffffffff1614610e15576040517f08c379a0000000000000000000000000000000000000000000000000000000008152600401610e0c906113c1565b60405180910390fd5b60008060008373ffffffffffffffffffffffffffffffffffffffff1673ffffffffffffffffffffffffffffffffffffffff1681526020019081526020016000209050806001016000815480929190610e6c90611410565b9190505550806002016000815480929190610e8690611410565b9190505550610ea760648260000154610e9f91906114f9565b612710611149565b81600001819055504281600401819055508173ffffffffffffffffffffffffffffffffffffffff167f5215db09e2874c4a59d8fb9d326f5f48331aadf2e1a976fc8bbb77342fc682be600180604051610f019291906114a7565b60405180910390a28173ffffffffffffffffffffffffffffffffffffffff167f153faadb71307f5fb5e2e3207cd9ad3b621c207ffb7d426dcab46d37a87d485e60018360000154604051610f569291906114d0565b60405180910390a25050565b600260009054906101000a900473ffffffffffffffffffffffffffffffffffffffff1673ffffffffffffffffffffffffffffffffffffffff163373ffffffffffffffffffffffffffffffffffffffff1614610ff2576040517f08c379a0000000000000000000000000000000000000000000000000000000008152600401610fe9906113c1565b60405180910390fd5b60008060008373ffffffffffffffffffffffffffffffffffffffff1673ffffffffffffffffffffffffffffffffffffffff168152602001908152602001600020905080600101600081548092919061104990611410565b919050555080600301600081548092919061106390611410565b919050555060c881600001541161107b57600061108d565b60c8816000015461108c9190611458565b5b81600001819055504281600401819055508173ffffffffffffffffffffffffffffffffffffffff167f5215db09e2874c4a59d8fb9d326f5f48331aadf2e1a976fc8bbb77342fc682be600160006040516110e89291906114a7565b60405180910390a28173ffffffffffffffffffffffffffffffffffffffff167f153faadb71307f5fb5e2e3207cd9ad3b621c207ffb7d426dcab46d37a87d485e6001836000015460405161113d9291906114d0565b60405180910390a25050565b6000818310611158578161115a565b825b905092915050565b6040518060a0016040528060008152602001600081526020016000815260200160008152602001600081525090565b6000819050919050565b6111a481611191565b82525050565b60006020820190506111bf600083018461119b565b92915050565b600080fd5b600073ffffffffffffffffffffffffffffffffffffffff82169050919050565b60006111f5826111ca565b9050919050565b611205816111ea565b811461121057600080fd5b50565b600081359050611222816111fc565b92915050565b60006020828403121561123e5761123d6111c5565b5b600061124c84828501611213565b91505092915050565b61125e81611191565b82525050565b60a08201600082015161127a6000850182611255565b50602082015161128d6020850182611255565b5060408201516112a06040850182611255565b5060608201516112b36060850182611255565b5060808201516112c66080850182611255565b50505050565b600060a0820190506112e16000830184611264565b92915050565b6112f0816111ea565b82525050565b600060208201905061130b60008301846112e7565b92915050565b600060a082019050611326600083018861119b565b611333602083018761119b565b611340604083018661119b565b61134d606083018561119b565b61135a608083018461119b565b9695505050505050565b600082825260208201905092915050565b7f4f6e6c79206f7263686573747261746f72000000000000000000000000000000600082015250565b60006113ab601183611364565b91506113b682611375565b602082019050919050565b600060208201905081810360008301526113da8161139e565b9050919050565b7f4e487b7100000000000000000000000000000000000000000000000000000000600052601160045260246000fd5b600061141b82611191565b91507fffffffffffffffffffffffffffffffffffffffffffffffffffffffffffffffff820361144d5761144c6113e1565b5b600182019050919050565b600061146382611191565b915061146e83611191565b9250828203905081811115611486576114856113e1565b5b92915050565b60008115159050919050565b6114a18161148c565b82525050565b60006040820190506114bc6000830185611498565b6114c96020830184611498565b9392505050565b60006040820190506114e56000830185611498565b6114f2602083018461119b565b9392505050565b600061150482611191565b915061150f83611191565b9250828201905080821115611527576115266113e1565b5b9291505056fea2646970667358221220e82057eefe892ddde64d44a133fca83ef816a3b44bbafadfce62e3983a21abcd64736f6c63430008140033",
  "linkReferences": {},
  "deployedLinkReferences": {}
}