{
  "_format": "hh-sol-artifact-1",
  "contractName": "TaskRegistry",
  "sourceName": "contracts/TaskRegistry.sol",
  "abi": [
    {
      "inputs": [],
      "stateMutability": "nonpayable",
      "type": "constructor"
    },
    {
      "anonymous": false,
      "inputs": [
        {
          "indexed": true,
          "internalType": "bytes32",
          "name": "taskId",
          "type": "bytes32"
        },
        {
          "indexed": true,
          "internalType": "address",
          "name": "node",
          "type": "address"
        }
      ],
      "name": "TaskAssigned",
      "type": "event"
    },
    {
      "anonymous": false,
      "inputs": [
        {
          "indexed": true,
          "internalType": "bytes32",
          "name": "taskId",
          "type": "bytes32"
        },
        {
          "indexed": false,
          "internalType": "bytes32",
          "name": "resultHash",
          "type": "bytes32"
        }
      ],
      "name": "TaskCompleted",
      "type": "event"
    },
    {
      "anonymous": false,
      "inputs": [
        {
          "indexed": true,
          "internalType": "bytes32",
          "name": "taskId",
          "type": "bytes32"
        },
        {
          "indexed": true,
          "internalType": "address",
          "name": "agent",
          "type": "address"
        },
        {
          "indexed": false,
          "internalType": "string",
          "name": "taskType",
          "type": "string"
        }
      ],
      "name": "TaskCreated",
      "type": "event"
    },
    {
      "anonymous": false,
      "inputs": [
        {
          "indexed": true,
          "internalType": "bytes32",
          "name": "taskId",
          "type": "bytes32"
        },
        {
          "indexed": false,
          "internalType": "string",
          "name": "reason",
          "type": "string"
        }
      ],
      "name": "TaskFailed",
      "type": "event"
    },
    {
      "inputs": [
        {
          "internalType": "address",
          "name": "",
          "type": "address"
        },
        {
          "internalType": "uint256",
          "name": "",
          "type": "uint256"
        }
      ],
      "name": "agentTasks",
      "outputs": [
        {
          "internalType": "bytes32",
          "name": "",
          "type": "bytes32"
        }
      ],
      "stateMutability": "view",
      "type": "function"
    },
    {
      "inputs": [
        {
          "internalType": "bytes32",
          "name": "taskId",
          "type": "bytes32"
        },
        {
          "internalType": "address",
          "name": "node",
          "type": "address"
        }
      ],
      "name": "assignTask",
      "outputs": [],
      "stateMutability": "nonpayable",
      "type": "function"
    },
    {
      "inputs": [
        {
          "internalType": "bytes32",
          "name": "taskId",
          "type": "bytes32"
        },
        {
          "internalType": "bytes32",
          "name": "resultHash",
          "type": "bytes32"
        }
      ],
      "name": "completeTask",
      "outputs": [],
      "stateMutability": "nonpayable",
      "type": "function"
    },
    {
      "inputs": [
        {
          "internalType": "bytes32",
          "name": "taskId",
          "type": "bytes32"
        },
        {
          "internalType": "address",
          "name": "agent",
          "type": "address"
        },
        {
          "internalType": "string",
          "name": "taskType",
          "type": "string"
        }
      ],
      "name": "createTask",
      "outputs": [],
      "stateMutability": "nonpayable",
      "type": "function"
    },
    {
      "inputs": [
        {
          "internalType": "bytes32",
          "name": "taskId",
          "type": "bytes32"
        },
        {
          "internalType": "string",
          "name": "reason",
          "type": "string"
        }
      ],
      "name": "failTask",
      "outputs": [],
      "stateMutability": "nonpayable",
      "type": "function"
    },
    {
      "inputs": [
        {
          "internalType": "address",
          "name": "agent",
          "type": "address"
        }
      ],
      "name": "getAgentTaskCount",
      "outputs": [
        {
          "internalType": "uint256",
          "name": "",
          "type": "uint256"
        }
      ],
      "stateMutability": "view",
      "type": "function"
    },
    {
      "inputs": [
        {
          "internalType": "address",
          "name": "node",
          "type": "address"
        }
      ],
      "name": "getNodeTaskCount",
      "outputs": [
        {
          "internalType": "uint256",
          "name": "",
          "type": "uint256"
        }
      ],
      "stateMutability": "view",
      "type": "function"
    },
    {
      "inputs": [
        {
          "internalType": "bytes32",
          "name": "taskId",
          "type": "bytes32"
        }
      ],
      "name": "getTask",
      "outputs": [
        {
          "components": [
            {
              "internalType": "bytes32",
              "name": "taskId",
              "type": "bytes32"
            },
            {
              "internalType": "address",
              "name": "agent",
              "type": "address"
            },
            {
              "internalType": "address",
              "name": "assignedNode",
              "type": "address"
            },
            {
              "internalType": "enum TaskRegistry.TaskStatus",
              "name": "status",
              "type": "uint8"
            },
            {
              "internalType": "string",
              "name": "taskType",
              "type": "string"
            },
            {
              "internalType": "uint256",
              "name": "createdAt",
              "type": "uint256"
            },
            {
              "internalType": "uint256",
              "name": "completedAt",
              "type": "uint256"
            },
            {
              "internalType": "bytes32",
              "name": "resultHash",
              "type": "bytes32"
            }
          ],
          "internalType": "struct TaskRegistry.Task",
          "name": "",
          "type": "tuple"
        }
      ],
      "stateMutability": "view",
      "type": "function"
    },
    {
      "inputs": [
        {
          "internalType": "address",
          "name": "",
          "type": "address"
        },
        {
          "internalType": "uint256",
          "name": "",
          "type": "uint256"
        }
      ],
      "name": "nodeTasks",
      "outputs": [
        {
          "internalType": "bytes32",
          "name": "",
          "type": "bytes32"
        }
      ],
      "stateMutability": "view",
      "type": "function"
    },
    {
      "inputs": [],
      "name": "orchestrator",
      "outputs": [
        {
          "internalType": "address",
          "name": "",
          "type": "address"
        }
      ],
      "stateMutability": "view",
      "type": "function"
    },
    {
      "inputs": [
        {
          "internalType": "bytes32",
          "name": "taskId",
          "type": "bytes32"
        }
      ],
      "name": "startTask",
      "outputs": [],
      "stateMutability": "nonpayable",
      "type": "function"
    },
    {
      "inputs": [],
      "name": "taskCount",
      "outputs": [
        {
          "internalType": "uint256",
          "name": "",
          "type": "uint256"
        }
      ],
      "stateMutability": "view",
      "type": "function"
    },
    {
      "inputs": [
        {
          "internalType": "bytes32",
          "name": "",
          "type": "bytes32"
        }
      ],
      "name": "tasks",
      "outputs": [
        {
          "internalType": "bytes32",
          "name": "taskId",
          "type": "bytes32"
        },
        {
          "internalType": "address",
          "name": "agent",
          "type": "address"
        },
        {
          "internalType": "address",
          "name": "assignedNode",
          "type": "address"
        },
        {
          "internalType": "enum TaskRegistry.TaskStatus",
          "name": "status",
          "type": "uint8"
        },
        {
          "internalType": "string",
          "name": "taskType",
          "type": "string"
        },
        {
          "internalType": "uint256",
          "name": "createdAt",
          "type": "uint256"
        },
        {
          "internalType": "uint256",
          "name": "completedAt",
          "type": "uint256"
        },
        {
          "internalType": "bytes32",
          "name": "resultHash",
          "type": "bytes32"
        }
      ],
      "stateMutability": "view",
      "type": "function"
    },
    {
      "inputs": [
        {
          "internalType": "address",
          "name": "newOrchestrator",
          "type": "address"
        }
      ],
      "name": "updateOrchestrator",
      "outputs": [],
      "stateMutability": "nonpayable",
      "type": "function"
    }
  ],
  "bytecode": "0x608060405234801561001057600080fd5b5033600360006101000a81548173ffffffffffffffffffffffffffffffffffffffff021916908373ffffffffffffffffffffffffffffffffffffffff160217905550611f19806100616000396000f3fe608060405234801561001057600080fd5b50600436106100ea5760003560e01c8063aa03376f1161008c578063b99f01a911610066578063b99f01a91461025b578063e579f50014610277578063e74da91c146102ae578063fa6a25ca146102de576100ea565b8063aa03376f14610203578063b6cb58a51461021f578063b74795d91461023d576100ea565b8063715165ee116100c8578063715165ee1461017f57806381d223bb1461019b5780638d8bb213146101b75780639d2f6972146101d3576100ea565b806315a29035146100ef5780634284a4d81461011f578063670ad7821461014f575b600080fd5b61010960048036038101906101049190611372565b6102fa565b60405161011691906115bf565b60405180910390f35b6101396004803603810190610134919061160d565b6104c8565b6040516101469190611649565b60405180910390f35b61016960048036038101906101649190611690565b610514565b60405161017691906116df565b60405180910390f35b610199600480360381019061019491906116fa565b610545565b005b6101b560048036038101906101b0919061173a565b610782565b005b6101d160048036038101906101cc919061160d565b61091c565b005b6101ed60048036038101906101e8919061160d565b6109f0565b6040516101fa9190611649565b60405180910390f35b61021d600480360381019061021891906117df565b610a3c565b005b610227610c50565b6040516102349190611649565b60405180910390f35b610245610c56565b604051610252919061184e565b60405180910390f35b61027560048036038101906102709190611372565b610c7c565b005b610291600480360381019061028c9190611372565b610dcb565b6040516102a59897969594939291906118c2565b60405180910390f35b6102c860048036038101906102c39190611690565b610ee8565b6040516102d591906116df565b60405180910390f35b6102f860048036038101906102f39190611947565b610f19565b005b6103026112a9565b60008083815260200190815260200160002060405180610100016040529081600082015481526020016001820160009054906101000a900473ffffffffffffffffffffffffffffffffffffffff1673ffffffffffffffffffffffffffffffffffffffff1673ffffffffffffffffffffffffffffffffffffffff1681526020016002820160009054906101000a900473ffffffffffffffffffffffffffffffffffffffff1673ffffffffffffffffffffffffffffffffffffffff1673ffffffffffffffffffffffffffffffffffffffff1681526020016002820160149054906101000a900460ff1660058111156103fb576103fa6113ef565b5b600581111561040d5761040c6113ef565b5b8152602001600382018054610421906119ea565b80601f016020809104026020016040519081016040528092919081815260200182805461044d906119ea565b801561049a5780601f1061046f5761010080835404028352916020019161049a565b820191906000526020600020905b81548152906001019060200180831161047d57829003601f168201915b5050505050815260200160048201548152602001600582015481526020016006820154815250509050919050565b6000600260008373ffffffffffffffffffffffffffffffffffffffff1673ffffffffffffffffffffffffffffffffffffffff168152602001908152602001600020805490509050919050565b6001602052816000526040600020818154811061053057600080fd5b90600052602060002001600091509150505481565b600360009054906101000a900473ffffffffffffffffffffffffffffffffffffffff1673ffffffffffffffffffffffffffffffffffffffff163373ffffffffffffffffffffffffffffffffffffffff16146105d5576040517f08c379a00000000000000000000000000000000000000000000000000000000081526004016105cc90611a67565b60405180910390fd5b60008060008481526020019081526020016000209050600060058111156105ff576105fe6113ef565b5b8160020160149054906101000a900460ff166005811115610623576106226113ef565b5b14610663576040517f08c379a000000000000000000000000000000000000000000000000000000000815260040161065a90611ad3565b60405180910390fd5b818160020160006101000a81548173ffffffffffffffffffffffffffffffffffffffff021916908373ffffffffffffffffffffffffffffffffffffffff16021790555060018160020160146101000a81548160ff021916908360058111156106ce576106cd6113ef565b5b0217905550600260008373ffffffffffffffffffffffffffffffffffffffff1673ffffffffffffffffffffffffffffffffffffffff1681526020019081526020016000208390806001815401808255809150506001900390600052602060002001600090919091909150558173ffffffffffffffffffffffffffffffffffffffff16837f9e52208b5745fde8bba93b2b82f2390bd6e1ddca033f03af60a09378d8f8275360405160405180910390a3505050565b600360009054906101000a900473ffffffffffffffffffffffffffffffffffffffff1673ffffffffffffffffffffffffffffffffffffffff163373ffffffffffffffffffffffffffffffffffffffff1614610812576040517f08c379a000000000000000000000000000000000000000000000000000000000815260040161080990611a67565b60405180910390fd5b600080600084815260200190815260200160002090506002600581111561083c5761083b6113ef565b5b8160020160149054906101000a900460ff1660058111156108605761085f6113ef565b5b146108a0576040517f08c379a000000000000000000000000000000000000000000000000000000000815260040161089790611ad3565b60405180910390fd5b60038160020160146101000a81548160ff021916908360058111156108c8576108c76113ef565b5b0217905550428160050181905550818160060181905550827f6a3a17a2ee0f5a9660f62936a17b5adc124d313734df031f55ab6c55bac36cfa8360405161090f91906116df565b60405180910390a2505050565b600360009054906101000a900473ffffffffffffffffffffffffffffffffffffffff1673ffffffffffffffffffffffffffffffffffffffff163373ffffffffffffffffffffffffffffffffffffffff16146109ac576040517f08c379a00000000000000000000000000000000000000000000000000000000081526004016109a390611a67565b60405180910390fd5b80600360006101000a81548173ffffffffffffffffffffffffffffffffffffffff021916908373ffffffffffffffffffffffffffffffffffffffff16021790555050565b6000600160008373ffffffffffffffffffffffffffffffffffffffff1673ffffffffffffffffffffffffffffffffffffffff168152602001908152602001600020805490509050919050565b600360009054906101000a900473ffffffffffffffffffffffffffffffffffffffff1673ffffffffffffffffffffffffffffffffffffffff163373ffffffffffffffffffffffffffffffffffffffff1614610acc576040517f08c379a0000000000000000000000000000000000000000000000000000000008152600401610ac390611a67565b60405180910390fd5b6000806000858152602001908152602001600020905060006005811115610af657610af56113ef565b5b8160020160149054906101000a900460ff166005811115610b1a57610b196113ef565b5b1480610b5b575060016005811115610b3557610b346113ef565b5b8160020160149054906101000a900460ff166005811115610b5957610b586113ef565b5b145b80610b9b575060026005811115610b7557610b746113ef565b5b8160020160149054906101000a900460ff166005811115610b9957610b986113ef565b5b145b610bda576040517f08c379a0000000000000000000000000000000000000000000000000000000008152600401610bd190611ad3565b60405180910390fd5b60048160020160146101000a81548160ff02191690836005811115610c0257610c016113ef565b5b0217905550428160050181905550837f1a3db277d344bf39313b85a095944f4e83a9010f1d35de39a99110aac3dca3b38484604051610c42929190611b2f565b60405180910390a250505050565b60045481565b600360009054906101000a900473ffffffffffffffffffffffffffffffffffffffff1681565b600360009054906101000a900473ffffffffffffffffffffffffffffffffffffffff1673ffffffffffffffffffffffffffffffffffffffff163373ffffffffffffffffffffffffffffffffffffffff1614610d0c576040517f08c379a0000000000000000000000000000000000000000000000000000000008152600401610d0390611a67565b60405180910390fd5b6000806000838152602001908152602001600020905060016005811115610d3657610d356113ef565b5b8160020160149054906101000a900460ff166005811115610d5a57610d596113ef565b5b14610d9a576040517f08c379a0000000000000000000000000000000000000000000000000000000008152600401610d9190611ad3565b60405180910390fd5b60028160020160146101000a81548160ff02191690836005811115610dc257610dc16113ef565b5b02179055505050565b60006020528060005260406000206000915090508060000154908060010160009054906101000a900473ffffffffffffffffffffffffffffffffffffffff16908060020160009054906101000a900473ffffffffffffffffffffffffffffffffffffffff16908060020160149054906101000a900460ff1690806003018054610e53906119ea565b80601f0160208091040260200160405190810160405280929190818152602001828054610e7f906119ea565b8015610ecc5780601f10610ea157610100808354040283529160200191610ecc565b820191906000526020600020905b815481529060010190602001808311610eaf57829003601f168201915b5050505050908060040154908060050154908060060154905088565b60026020528160005260406000208181548110610f0457600080fd5b90600052602060002001600091509150505481565b600360009054906101000a900473ffffffffffffffffffffffffffffffffffffffff1673ffffffffffffffffffffffffffffffffffffffff163373ffffffffffffffffffffffffffffffffffffffff1614610fa9576040517f08c379a0000000000000000000000000000000000000000000000000000000008152600401610fa090611a67565b60405180910390fd5b60008060008681526020019081526020016000206004015414611001576040517f08c379a0000000000000000000000000000000000000000000000000000000008152600401610ff890611b9f565b60405180910390fd5b6040518061010001604052808581526020018473ffffffffffffffffffffffffffffffffffffffff168152602001600073ffffffffffffffffffffffffffffffffffffffff168152602001600060058111156110605761105f6113ef565b5b815260200183838080601f016020809104026020016040519081016040528093929190818152602001838380828437600081840152601f19601f820116905080830192505050505050508152602001428152602001600081526020016000801b8152506000808681526020019081526020016000206000820151816000015560208201518160010160006101000a81548173ffffffffffffffffffffffffffffffffffffffff021916908373ffffffffffffffffffffffffffffffffffffffff16021790555060408201518160020160006101000a81548173ffffffffffffffffffffffffffffffffffffffff021916908373ffffffffffffffffffffffffffffffffffffffff16021790555060608201518160020160146101000a81548160ff02191690836005811115611198576111976113ef565b5b021790555060808201518160030190816111b29190611d9a565b5060a0820151816004015560c0820151816005015560e08201518160060155905050600160008473ffffffffffffffffffffffffffffffffffffffff1673ffffffffffffffffffffffffffffffffffffffff1681526020019081526020016000208490806001815401808255809150506001900390600052602060002001600090919091909150556004600081548092919061124d90611e9b565b91905055508273ffffffffffffffffffffffffffffffffffffffff16847f0240d130443ec529ee495318f2c42227387f32171e6615b33ed9017574bfd77a848460405161129b929190611b2f565b60405180910390a350505050565b60405180610100016040528060008019168152602001600073ffffffffffffffffffffffffffffffffffffffff168152602001600073ffffffffffffffffffffffffffffffffffffffff1681526020016000600581111561130d5761130c6113ef565b5b8152602001606081526020016000815260200160008152602001600080191681525090565b600080fd5b600080fd5b6000819050919050565b61134f8161133c565b811461135a57600080fd5b50565b60008135905061136c81611346565b92915050565b60006020828403121561138857611387611332565b5b60006113968482850161135d565b91505092915050565b6113a88161133c565b82525050565b600073ffffffffffffffffffffffffffffffffffffffff82169050919050565b60006113d9826113ae565b9050919050565b6113e9816113ce565b82525050565b7f4e487b7100000000000000000000000000000000000000000000000000000000600052602160045260246000fd5b6006811061142f5761142e6113ef565b5b50565b60008190506114408261141e565b919050565b600061145082611432565b9050919050565b61146081611445565b82525050565b600081519050919050565b600082825260208201905092915050565b60005b838110156114a0578082015181840152602081019050611485565b60008484015250505050565b6000601f19601f8301169050919050565b60006114c882611466565b6114d28185611471565b93506114e2818560208601611482565b6114eb816114ac565b840191505092915050565b6000819050919050565b611509816114f6565b82525050565b600061010083016000830151611528600086018261139f565b50602083015161153b60208601826113e0565b50604083015161154e60408601826113e0565b5060608301516115616060860182611457565b506080830151848203608086015261157982826114bd565b91505060a083015161158e60a0860182611500565b5060c08301516115a160c0860182611500565b5060e08301516115b460e086018261139f565b508091505092915050565b600060208201905081810360008301526115d9818461150f565b905092915050565b6115ea816113ce565b81146115f557600080fd5b50565b600081359050611607816115e1565b92915050565b60006020828403121561162357611622611332565b5b6000611631848285016115f8565b91505092915050565b611643816114f6565b82525050565b600060208201905061165e600083018461163a565b92915050565b61166d816114f6565b811461167857600080fd5b50565b60008135905061168a81611664565b92915050565b600080604083850312156116a7576116a6611332565b5b60006116b5858286016115f8565b92505060206116c68582860161167b565b9150509250929050565b6116d98161133c565b82525050565b60006020820190506116f460008301846116d0565b92915050565b6000806040838503121561171157611710611332565b5b600061171f8582860161135d565b9250506020611730858286016115f8565b9150509250929050565b6000806040838503121561175157611750611332565b5b600061175f8582860161135d565b92505060206117708582860161135d565b9150509250929050565b600080fd5b600080fd5b600080fd5b60008083601f84011261179f5761179e61177a565b5b8235905067ffffffffffffffff8111156117bc576117bb61177f565b5b6020830191508360018202830111156117d8576117d7611784565b5b9250929050565b6000806000604084860312156117f8576117f7611332565b5b60006118068682870161135d565b935050602084013567ffffffffffffffff81111561182757611826611337565b5b61183386828701611789565b92509250509250925092565b611848816113ce565b82525050565b6000602082019050611863600083018461183f565b92915050565b61187281611445565b82525050565b600082825260208201905092915050565b600061189482611466565b61189e8185611878565b93506118ae818560208601611482565b6118b7816114ac565b840191505092915050565b6000610100820190506118d8600083018b6116d0565b6118e5602083018a61183f565b6118f2604083018961183f565b6118ff6060830188611869565b81810360808301526119118187611889565b905061192060a083018661163a565b61192d60c083018561163a565b61193a60e08301846116d0565b9998505050505050505050565b6000806000806060858703121561196157611960611332565b5b600061196f8782880161135d565b9450506020611980878288016115f8565b935050604085013567ffffffffffffffff8111156119a1576119a0611337565b5b6119ad87828801611789565b925092505092959194509250565b7f4e487b7100000000000000000000000000000000000000000000000000000000600052602260045260246000fd5b60006002820490506001821680611a0257607f821691505b602082108103611a1557611a146119bb565b5b50919050565b7f4f6e6c79206f7263686573747261746f72000000000000000000000000000000600082015250565b6000611a51601183611878565b9150611a5c82611a1b565b602082019050919050565b60006020820190508181036000830152611a8081611a44565b9050919050565b7f496e76616c696420737461747573000000000000000000000000000000000000600082015250565b6000611abd600e83611878565b9150611ac882611a87565b602082019050919050565b60006020820190508181036000830152611aec81611ab0565b9050919050565b82818337600083830152505050565b6000611b0e8385611878565b9350611b1b838584611af3565b611b24836114ac565b840190509392505050565b60006020820190508181036000830152611b4a818486611b02565b90509392505050565b7f5461736b20616c72656164792065786973747300000000000000000000000000600082015250565b6000611b89601383611878565b9150611b9482611b53565b602082019050919050565b60006020820190508181036000830152611bb881611b7c565b9050919050565b7f4e487b7100000000000000000000000000000000000000000000000000000000600052604160045260246000fd5b60008190508160005260206000209050919050565b60006020601f8301049050919050565b600082821b905092915050565b600060088302611c507fffffffffffffffffffffffffffffffffffffffffffffffffffffffffffffffff82611c13565b611c5a8683611c13565b95508019841693508086168417925050509392505050565b6000819050919050565b6000611c97611c92611c8d846114f6565b611c72565b6114f6565b9050919050565b6000819050919050565b611cb183611c7c565b611cc5611cbd82611c9e565b848454611c20565b825550505050565b600090565b611cda611ccd565b611ce5818484611ca8565b505050565b5b81811015611d0957611cfe600082611cd2565b600181019050611ceb565b5050565b601f821115611d4e57611d1f81611bee565b611d2884611c03565b81016020851015611d37578190505b611d4b611d4385611c03565b830182611cea565b50505b505050565b600082821c905092915050565b6000611d7160001984600802611d53565b1980831691505092915050565b6000611d8a8383611d60565b9150826002028217905092915050565b611da382611466565b67ffffffffffffffff811115611dbc57611dbb611bbf565b5b611dc682546119ea565b611dd1828285611d0d565b600060209050601f831160018114611e045760008415611df2578287015190505b611dfc8582611d7e565b865550611e64565b601f198416611e1286611bee565b60005b82811015611e3a57848901518255600182019150602085019450602081019050611e15565b86831015611e575784890151611e53601f891682611d60565b8355505b6001600288020188555050505b505050505050565b7f4e487b7100000000000000000000000000000000000000000000000000000000600052601160045260246000fd5b6000611ea6826114f6565b91507fffffffffffffffffffffffffffffffffffffffffffffffffffffffffffffffff8203611ed857611ed7611e6c565b5b60018201905091905056fea2646970667358221220842b48a4bd34799ea960e763602fe7fde72db31d16cbb370dc12b74ad342beb264736f6c63430008140033",
  "linkReferences": {},
  "deployedLinkReferences": {}
}