{
  "_format": "hh-sol-artifact-1",
  "contractName": "EscrowContract",
  "sourceName": "contracts/EscrowContract.sol",
  "abi": [
    {
      "inputs": [
        {
          "internalType": "address",
          "name": "_feeRecipient",
          "type": "address"
        }
      ],
      "stateMutability": "nonpayable",
      "type": "constructor"
    },
    {
      "anonymous": false,
      "inputs": [
        {
          "indexed": true,
          "internalType": "uint256",
          "name": "escrowId",
          "type": "uint256"
        },
        {
          "indexed": true,
          "internalType": "address",
          "name": "agent",
          "type": "address"
        },
        {
          "indexed": false,
          "internalType": "uint256",
          "name": "amount",
          "type": "uint256"
        },
        {
          "indexed": false,
          "internalType": "bytes32",
          "name": "taskHash",
          "type": "bytes32"
        }
      ],
      "name": "EscrowLocked",
      "type": "event"
    },
    {
      "anonymous": false,
      "inputs": [
        {
          "indexed": true,
          "internalType": "uint256",
          "name": "escrowId",
          "type": "uint256"
        },
        {
          "indexed": true,
          "internalType": "address",
          "name": "agent",
          "type": "address"
        },
        {
          "indexed": false,
          "internalType": "uint256",
          "name": "amount",
          "type": "uint256"
        }
      ],
      "name": "EscrowRefunded",
      "type": "event"
    },
    {
      "anonymous": false,
      "inputs": [
        {
          "indexed": true,
          "internalType": "uint256",
          "name": "escrowId",
          "type": "uint256"
        },
        {
          "indexed": true,
          "internalType": "address",
          "name": "node",
          "type": "address"
        },
        {
          "indexed": false,
          "internalType": "uint256",
          "name": "amount",
          "type": "uint256"
        }
      ],
      "name": "EscrowReleased",
      "type": "event"
    },
    {
      "anonymous": false,
      "inputs": [
        {
          "indexed": true,
          "internalType": "uint256",
          "name": "escrowId",
          "type": "uint256"
        },
        {
          "indexed": false,
          "internalType": "uint256",
          "name": "slashAmount",
          "type": "uint256"
        },
        {
          "indexed": false,
          "internalType": "string",
          "name": "reason",
          "type": "string"
        }
      ],
      "name": "EscrowSlashed",
      "type": "event"
    },
    {
      "inputs": [],
      "name": "escrowCounter",
      "outputs": [
        {
          "internalType": "uint256",
          "name": "",
          "type": "uint256"
        }
      ],
      "stateMutability": "view",
      "type": "function"
    },
    {
      "inputs": [
        {
          "internalType": "uint256",
          "name": "",
          "type": "uint256"
        }
      ],
      "name": "escrows",
      "outputs": [
        {
          "internalType": "uint256",
          "name": "id",
          "type": "uint256"
        },
        {
          "internalType": "address",
          "name": "agent",
          "type": "address"
        },
        {
          "internalType": "address",
          "name": "node",
          "type": "address"
        },
        {
          "internalType": "uint256",
          "name": "amount",
          "type": "uint256"
        },
        {
          "internalType": "uint256",
          "name": "lockedAt",
          "type": "uint256"
        },
        {
          "internalType": "uint256",
          "name": "timeoutAt",
          "type": "uint256"
        },
        {
          "internalType": "enum EscrowContract.EscrowStatus",
          "name": "status",
          "type": "uint8"
        },
        {
          "internalType": "bytes32",
          "name": "taskHash",
          "type": "bytes32"
        }
      ],
      "stateMutability": "view",
      "type": "function"
    },
    {
      "inputs": [],
      "name": "feeRecipient",
      "outputs": [
        {
          "internalType": "address",
          "name": "",
          "type": "address"
        }
      ],
      "stateMutability": "view",
      "type": "function"
    },
    {
      "inputs": [
        {
          "internalType": "uint256",
          "name": "escrowId",
          "type": "uint256"
        }
      ],
      "name": "getEscrow",
      "outputs": [
        {
          "components": [
            {
              "internalType": "uint256",
              "name": "id",
              "type": "uint256"
            },
            {
              "internalType": "address",
              "name": "agent",
              "type": "address"
            },
            {
              "internalType": "address",
              "name": "node",
              "type": "address"
            },
            {
              "internalType": "uint256",
              "name": "amount",
              "type": "uint256"
            },
            {
              "internalType": "uint256",
              "name": "lockedAt",
              "type": "uint256"
            },
            {
              "internalType": "uint256",
              "name": "timeoutAt",
              "type": "uint256"
            },
            {
              "internalType": "enum EscrowContract.EscrowStatus",
              "name": "status",
              "type": "uint8"
            },
            {
              "internalType": "bytes32",
              "name": "taskHash",
              "type": "bytes32"
            }
          ],
          "internalType": "struct EscrowContract.Escrow",
          "name": "",
          "type": "tuple"
        }
      ],
      "stateMutability": "view",
      "type": "function"
    },
    {
      "inputs": [
        {
          "internalType": "bytes32",
          "name": "taskHash",
          "type": "bytes32"
        },
        {
          "internalType": "uint256",
          "name": "timeoutHours",
          "type": "uint256"
        }
      ],
      "name": "lockEscrow",
      "outputs": [
        {
          "internalType": "uint256",
          "name": "",
          "type": "uint256"
        }
      ],
      "stateMutability": "payable",
      "type": "function"
    },
    {
      "inputs": [],
      "name": "orchestrator",
      "outputs": [
        {
          "internalType": "address",
          "name": "",
          "type": "address"
        }
      ],
      "stateMutability": "view",
      "type": "function"
    },
    {
      "inputs": [],
      "name": "platformFee",
      "outputs": [
        {
          "internalType": "uint256",
          "name": "",
          "type": "uint256"
        }
      ],
      "stateMutability": "view",
      "type": "function"
    },
    {
      "inputs": [
        {
          "internalType": "uint256",
          "name": "escrowId",
          "type": "uint256"
        }
      ],
      "name": "refundEscrow",
      "outputs": [],
      "stateMutability": "nonpayable",
      "type": "function"
    },
    {
      "inputs": [
        {
          "internalType": "uint256",
          "name": "escrowId",
          "type": "uint256"
        },
        {
          "internalType": "address",
          "name": "nodeAddress",
          "type": "address"
        }
      ],
      "name": "releaseEscrow",
      "outputs": [],
      "stateMutability": "nonpayable",
      "type": "function"
    },
    {
      "inputs": [
        {
          "internalType": "uint256",
          "name": "escrowId",
          "type": "uint256"
        },
        {
          "internalType": "uint256",
          "name": "slashPercentage",
          "type": "uint256"
        },
        {
          "internalType": "string",
          "name": "reason",
          "type": "string"
        }
      ],
      "name": "slashEscrow",
      "outputs": [],
      "stateMutability": "nonpayable",
      "type": "function"
    },
    {
      "inputs": [
        {
          "internalType": "bytes32",
          "name": "",
          "type": "bytes32"
        }
      ],
      "name": "taskToEscrow",
      "outputs": [
        {
          "internalType": "uint256",
          "name": "",
          "type": "uint256"
        }
      ],
      "stateMutability": "view",
      "type": "function"
    },
    {
      "inputs": [
        {
          "internalType": "address",
          "name": "newOrchestrator",
          "type": "address"
        }
      ],
      "name": "updateOrchestrator",
      "outputs": [],
      "stateMutability": "nonpayable",
      "type": "function"
    }
  ],
  "bytecode": "0x608060405260c86004553480156200001657600080fd5b5060405162001e7738038062001e7783398181016040528101906200003c91906200012f565b33600360006101000a81548173ffffffffffffffffffffffffffffffffffffffff021916908373ffffffffffffffffffffffffffffffffffffffff16021790555080600560006101000a81548173ffffffffffffffffffffffffffffffffffffffff021916908373ffffffffffffffffffffffffffffffffffffffff1602179055505062000161565b600080fd5b600073ffffffffffffffffffffffffffffffffffffffff82169050919050565b6000620000f782620000ca565b9050919050565b6200010981620000ea565b81146200011557600080fd5b50565b6000815190506200012981620000fe565b92915050565b600060208284031215620001485762000147620000c5565b5b6000620001588482850162000118565b91505092915050565b611d0680620001716000396000f3fe6080604052600436106100a75760003560e01c80638d8bb213116100645780638d8bb213146101dc578063b74795d914610205578063c6cb3bbe14610230578063c7ceafea14610259578063d2a3dcf214610284578063dfda9af2146102c1576100a7565b8063012f52ee146100ac57806326232a2e146100f0578063356f9dfd1461011b57806346904840146101445780637d19e5961461016f57806383b30ad4146101ac575b600080fd5b3480156100b857600080fd5b506100d360048036038101906100ce91906111e1565b6102ea565b6040516100e79897969594939291906112ee565b60405180910390f35b3480156100fc57600080fd5b5061010561037f565b604051610112919061136c565b60405180910390f35b34801561012757600080fd5b50610142600480360381019061013d91906111e1565b610385565b005b34801561015057600080fd5b506101596105ca565b6040516101669190611387565b60405180910390f35b34801561017b57600080fd5b50610196600480360381019061019191906111e1565b6105f0565b6040516101a39190611480565b60405180910390f35b6101c660048036038101906101c191906114c8565b610737565b6040516101d3919061136c565b60405180910390f35b3480156101e857600080fd5b5061020360048036038101906101fe9190611534565b6109f9565b005b34801561021157600080fd5b5061021a610acd565b6040516102279190611387565b60405180910390f35b34801561023c57600080fd5b5061025760048036038101906102529190611561565b610af3565b005b34801561026557600080fd5b5061026e610e05565b60405161027b919061136c565b60405180910390f35b34801561029057600080fd5b506102ab60048036038101906102a691906115a1565b610e0b565b6040516102b8919061136c565b60405180910390f35b3480156102cd57600080fd5b506102e860048036038101906102e39190611714565b610e23565b005b60016020528060005260406000206000915090508060000154908060010160009054906101000a900473ffffffffffffffffffffffffffffffffffffffff16908060020160009054906101000a900473ffffffffffffffffffffffffffffffffffffffff16908060030154908060040154908060050154908060060160009054906101000a900460ff16908060070154905088565b60045481565b6000600160008381526020019081526020016000209050600060048111156103b0576103af61125e565b5b8160060160009054906101000a900460ff1660048111156103d4576103d361125e565b5b14610414576040517f08c379a000000000000000000000000000000000000000000000000000000000815260040161040b906117e0565b60405180910390fd5b8060050154421015806104745750600360009054906101000a900473ffffffffffffffffffffffffffffffffffffffff1673ffffffffffffffffffffffffffffffffffffffff163373ffffffffffffffffffffffffffffffffffffffff16145b6104b3576040517f08c379a00000000000000000000000000000000000000000000000000000000081526004016104aa9061184c565b60405180910390fd5b60028160060160006101000a81548160ff021916908360048111156104db576104da61125e565b5b02179055508060010160009054906101000a900473ffffffffffffffffffffffffffffffffffffffff1673ffffffffffffffffffffffffffffffffffffffff166108fc82600301549081150290604051600060405180830381858888f1935050505015801561054e573d6000803e3d6000fd5b508060010160009054906101000a900473ffffffffffffffffffffffffffffffffffffffff1673ffffffffffffffffffffffffffffffffffffffff16827feac97bc1917fcedc984e3d0671d4e83b359890323d5d1c2de32b28d17c356ced83600301546040516105be919061136c565b60405180910390a35050565b600560009054906101000a900473ffffffffffffffffffffffffffffffffffffffff1681565b6105f8611111565b6001600083815260200190815260200160002060405180610100016040529081600082015481526020016001820160009054906101000a900473ffffffffffffffffffffffffffffffffffffffff1673ffffffffffffffffffffffffffffffffffffffff1673ffffffffffffffffffffffffffffffffffffffff1681526020016002820160009054906101000a900473ffffffffffffffffffffffffffffffffffffffff1673ffffffffffffffffffffffffffffffffffffffff1673ffffffffffffffffffffffffffffffffffffffff1681526020016003820154815260200160048201548152602001600582015481526020016006820160009054906101000a900460ff1660048111156107105761070f61125e565b5b60048111156107225761072161125e565b5b81526020016007820154815250509050919050565b600080341161077b576040517f08c379a0000000000000000000000000000000000000000000000000000000008152600401610772906118b8565b60405180910390fd5b60006002600085815260200190815260200160002054146107d1576040517f08c379a00000000000000000000000000000000000000000000000000000000081526004016107c890611924565b60405180910390fd5b6000808154809291906107e390611973565b91905055506000805490506040518061010001604052808281526020013373ffffffffffffffffffffffffffffffffffffffff168152602001600073ffffffffffffffffffffffffffffffffffffffff168152602001348152602001428152602001610e108561085391906119bb565b4261085e91906119fd565b8152602001600060048111156108775761087661125e565b5b815260200185815250600160008381526020019081526020016000206000820151816000015560208201518160010160006101000a81548173ffffffffffffffffffffffffffffffffffffffff021916908373ffffffffffffffffffffffffffffffffffffffff16021790555060408201518160020160006101000a81548173ffffffffffffffffffffffffffffffffffffffff021916908373ffffffffffffffffffffffffffffffffffffffff160217905550606082015181600301556080820151816004015560a0820151816005015560c08201518160060160006101000a81548160ff021916908360048111156109745761097361125e565b5b021790555060e082015181600701559050508060026000868152602001908152602001600020819055503373ffffffffffffffffffffffffffffffffffffffff16817ff7f6a0a48e4d9b75d87e625f3aff43e52b2d45aee9e9c34b369541eef28217bf34876040516109e7929190611a31565b60405180910390a38091505092915050565b600360009054906101000a900473ffffffffffffffffffffffffffffffffffffffff1673ffffffffffffffffffffffffffffffffffffffff163373ffffffffffffffffffffffffffffffffffffffff1614610a89576040517f08c379a0000000000000000000000000000000000000000000000000000000008152600401610a8090611aa6565b60405180910390fd5b80600360006101000a81548173ffffffffffffffffffffffffffffffffffffffff021916908373ffffffffffffffffffffffffffffffffffffffff16021790555050565b600360009054906101000a900473ffffffffffffffffffffffffffffffffffffffff1681565b600360009054906101000a900473ffffffffffffffffffffffffffffffffffffffff1673ffffffffffffffffffffffffffffffffffffffff163373ffffffffffffffffffffffffffffffffffffffff1614610b83576040517f08c379a0000000000000000000000000000000000000000000000000000000008152600401610b7a90611aa6565b60405180910390fd5b600060016000848152602001908152602001600020905060006004811115610bae57610bad61125e565b5b8160060160009054906101000a900460ff166004811115610bd257610bd161125e565b5b14610c12576040517f08c379a0000000000000000000000000000000000000000000000000000000008152600401610c09906117e0565b60405180910390fd5b80600501544210610c58576040517f08c379a0000000000000000000000000000000000000000000000000000000008152600401610c4f90611b12565b60405180910390fd5b60018160060160006101000a81548160ff02191690836004811115610c8057610c7f61125e565b5b0217905550818160020160006101000a81548173ffffffffffffffffffffffffffffffffffffffff021916908373ffffffffffffffffffffffffffffffffffffffff16021790555060006127106004548360030154610cdf91906119bb565b610ce99190611b61565b90506000818360030154610cfd9190611b92565b9050600560009054906101000a900473ffffffffffffffffffffffffffffffffffffffff1673ffffffffffffffffffffffffffffffffffffffff166108fc839081150290604051600060405180830381858888f19350505050158015610d67573d6000803e3d6000fd5b508373ffffffffffffffffffffffffffffffffffffffff166108fc829081150290604051600060405180830381858888f19350505050158015610dae573d6000803e3d6000fd5b508373ffffffffffffffffffffffffffffffffffffffff16857f6244ed823ca6be0f11bc890c3fafcf3c29cb23420c14243642e930b5e07e6d0a83604051610df6919061136c565b60405180910390a35050505050565b60005481565b60026020528060005260406000206000915090505481565b600360009054906101000a900473ffffffffffffffffffffffffffffffffffffffff1673ffffffffffffffffffffffffffffffffffffffff163373ffffffffffffffffffffffffffffffffffffffff1614610eb3576040517f08c379a0000000000000000000000000000000000000000000000000000000008152600401610eaa90611aa6565b60405180910390fd5b600060016000858152602001908152602001600020905060006004811115610ede57610edd61125e565b5b8160060160009054906101000a900460ff166004811115610f0257610f0161125e565b5b14610f42576040517f08c379a0000000000000000000000000000000000000000000000000000000008152600401610f39906117e0565b60405180910390fd5b6064831115610f86576040517f08c379a0000000000000000000000000000000000000000000000000000000008152600401610f7d90611c12565b60405180910390fd5b60048160060160006101000a81548160ff02191690836004811115610fae57610fad61125e565b5b021790555060006064848360030154610fc791906119bb565b610fd19190611b61565b90506000818360030154610fe59190611b92565b9050600082111561105a57600560009054906101000a900473ffffffffffffffffffffffffffffffffffffffff1673ffffffffffffffffffffffffffffffffffffffff166108fc839081150290604051600060405180830381858888f19350505050158015611058573d6000803e3d6000fd5b505b60008111156110cf578260010160009054906101000a900473ffffffffffffffffffffffffffffffffffffffff1673ffffffffffffffffffffffffffffffffffffffff166108fc829081150290604051600060405180830381858888f193505050501580156110cd573d6000803e3d6000fd5b505b857f22c93847036e015836f638068432265538d20f97984f47e8db596ffde5a689b28386604051611101929190611ca0565b60405180910390a2505050505050565b60405180610100016040528060008152602001600073ffffffffffffffffffffffffffffffffffffffff168152602001600073ffffffffffffffffffffffffffffffffffffffff168152602001600081526020016000815260200160008152602001600060048111156111875761118661125e565b5b8152602001600080191681525090565b6000604051905090565b600080fd5b600080fd5b6000819050919050565b6111be816111ab565b81146111c957600080fd5b50565b6000813590506111db816111b5565b92915050565b6000602082840312156111f7576111f66111a1565b5b6000611205848285016111cc565b91505092915050565b611217816111ab565b82525050565b600073ffffffffffffffffffffffffffffffffffffffff82169050919050565b60006112488261121d565b9050919050565b6112588161123d565b82525050565b7f4e487b7100000000000000000000000000000000000000000000000000000000600052602160045260246000fd5b6005811061129e5761129d61125e565b5b50565b60008190506112af8261128d565b919050565b60006112bf826112a1565b9050919050565b6112cf816112b4565b82525050565b6000819050919050565b6112e8816112d5565b82525050565b600061010082019050611304600083018b61120e565b611311602083018a61124f565b61131e604083018961124f565b61132b606083018861120e565b611338608083018761120e565b61134560a083018661120e565b61135260c08301856112c6565b61135f60e08301846112df565b9998505050505050505050565b6000602082019050611381600083018461120e565b92915050565b600060208201905061139c600083018461124f565b92915050565b6113ab816111ab565b82525050565b6113ba8161123d565b82525050565b6113c9816112b4565b82525050565b6113d8816112d5565b82525050565b610100820160008201516113f560008501826113a2565b50602082015161140860208501826113b1565b50604082015161141b60408501826113b1565b50606082015161142e60608501826113a2565b50608082015161144160808501826113a2565b5060a082015161145460a08501826113a2565b5060c082015161146760c08501826113c0565b5060e082015161147a60e08501826113cf565b50505050565b60006101008201905061149660008301846113de565b92915050565b6114a5816112d5565b81146114b057600080fd5b50565b6000813590506114c28161149c565b92915050565b600080604083850312156114df576114de6111a1565b5b60006114ed858286016114b3565b92505060206114fe858286016111cc565b9150509250929050565b6115118161123d565b811461151c57600080fd5b50565b60008135905061152e81611508565b92915050565b60006020828403121561154a576115496111a1565b5b60006115588482850161151f565b91505092915050565b60008060408385031215611578576115776111a1565b5b6000611586858286016111cc565b92505060206115978582860161151f565b9150509250929050565b6000602082840312156115b7576115b66111a1565b5b60006115c5848285016114b3565b91505092915050565b600080fd5b600080fd5b6000601f19601f8301169050919050565b7f4e487b7100000000000000000000000000000000000000000000000000000000600052604160045260246000fd5b611621826115d8565b810181811067ffffffffffffffff821117156116405761163f6115e9565b5b80604052505050565b6000611653611197565b905061165f8282611618565b919050565b600067ffffffffffffffff82111561167f5761167e6115e9565b5b611688826115d8565b9050602081019050919050565b82818337600083830152505050565b60006116b76116b284611664565b611649565b9050828152602081018484840111156116d3576116d26115d3565b5b6116de848285611695565b509392505050565b600082601f8301126116fb576116fa6115ce565b5b813561170b8482602086016116a4565b91505092915050565b60008060006060848603121561172d5761172c6111a1565b5b600061173b868287016111cc565b935050602061174c868287016111cc565b925050604084013567ffffffffffffffff81111561176d5761176c6111a6565b5b611779868287016116e6565b9150509250925092565b600082825260208201905092915050565b7f496e76616c696420737461747573000000000000000000000000000000000000600082015250565b60006117ca600e83611783565b91506117d582611794565b602082019050919050565b600060208201905081810360008301526117f9816117bd565b9050919050565b7f43616e6e6f7420726566756e6420796574000000000000000000000000000000600082015250565b6000611836601183611783565b915061184182611800565b602082019050919050565b6000602082019050818103600083015261186581611829565b9050919050565b7f4d7573742073656e642066756e64730000000000000000000000000000000000600082015250565b60006118a2600f83611783565b91506118ad8261186c565b602082019050919050565b600060208201905081810360008301526118d181611895565b9050919050565b7f5461736b20616c726561647920657363726f7765640000000000000000000000600082015250565b600061190e601583611783565b9150611919826118d8565b602082019050919050565b6000602082019050818103600083015261193d81611901565b9050919050565b7f4e487b7100000000000000000000000000000000000000000000000000000000600052601160045260246000fd5b600061197e826111ab565b91507fffffffffffffffffffffffffffffffffffffffffffffffffffffffffffffffff82036119b0576119af611944565b5b600182019050919050565b60006119c6826111ab565b91506119d1836111ab565b92508282026119df816111ab565b915082820484148315176119f6576119f5611944565b5b5092915050565b6000611a08826111ab565b9150611a13836111ab565b9250828201905080821115611a2b57611a2a611944565b5b92915050565b6000604082019050611a46600083018561120e565b611a5360208301846112df565b9392505050565b7f4f6e6c79206f7263686573747261746f72000000000000000000000000000000600082015250565b6000611a90601183611783565b9150611a9b82611a5a565b602082019050919050565b60006020820190508181036000830152611abf81611a83565b9050919050565b7f457363726f772074696d6564206f757400000000000000000000000000000000600082015250565b6000611afc601083611783565b9150611b0782611ac6565b602082019050919050565b60006020820190508181036000830152611b2b81611aef565b9050919050565b7f4e487b7100000000000000000000000000000000000000000000000000000000600052601260045260246000fd5b6000611b6c826111ab565b9150611b77836111ab565b925082611b8757611b86611b32565b5b828204905092915050565b6000611b9d826111ab565b9150611ba8836111ab565b9250828203905081811115611bc057611bbf611944565b5b92915050565b7f496e76616c69642070657263656e746167650000000000000000000000000000600082015250565b6000611bfc601283611783565b9150611c0782611bc6565b602082019050919050565b60006020820190508181036000830152611c2b81611bef565b9050919050565b600081519050919050565b60005b83811015611c5b578082015181840152602081019050611c40565b60008484015250505050565b6000611c7282611c32565b611c7c8185611783565b9350611c8c818560208601611c3d565b611c95816115d8565b840191505092915050565b6000604082019050611cb5600083018561120e565b8181036020830152611cc78184611c67565b9050939250505056fea2646970667358221220f402bc53db2eb48c21219194ea51817725b4995943e2b93bf25a592b4a11f8ef64736f6c63430008140033",
  "linkReferences": {},
  "deployedLinkReferences": {}
}