{
  "_format": "hh-sol-artifact-1",
  "contractName": "PaymentSettlement",
  "sourceName": "contracts/PaymentSettlement.sol",
  "abi": [
    {
      "inputs": [],
      "stateMutability": "nonpayable",
      "type": "constructor"
    },
    {
      "anonymous": false,
      "inputs": [
        {
          "indexed": false,
          "internalType": "uint256",
          "name": "totalAmount",
          "type": "uint256"
        },
        {
          "indexed": false,
          "internalType": "uint256",
          "name": "paymentCount",
          "type": "uint256"
        }
      ],
      "name": "BatchSettled",
      "type": "event"
    },
    {
      "anonymous": false,
      "inputs": [
        {
          "indexed": true,
          "internalType": "address",
          "name": "user",
          "type": "address"
        },
        {
          "indexed": false,
          "internalType": "uint256",
          "name": "amount",
          "type": "uint256"
        }
      ],
      "name": "Deposited",
      "type": "event"
    },
    {
      "anonymous": false,
      "inputs": [
        {
          "indexed": true,
          "internalType": "uint256",
          "name": "paymentId",
          "type": "uint256"
        },
        {
          "indexed": true,
          "internalType": "address",
          "name": "from",
          "type": "address"
        },
        {
          "indexed": true,
          "internalType": "address",
          "name": "to",
          "type": "address"
        },
        {
          "indexed": false,
          "internalType": "uint256",
          "name": "amount",
          "type": "uint256"
        }
      ],
      "name": "PaymentMade",
      "type": "event"
    },
    {
      "anonymous": false,
      "inputs": [
        {
          "indexed": true,
          "internalType": "address",
          "name": "user",
          "type": "address"
        },
        {
          "indexed": false,
          "internalType": "uint256",
          "name": "amount",
          "type": "uint256"
        }
      ],
      "name": "Withdrawn",
      "type": "event"
    },
    {
      "inputs": [
        {
          "internalType": "address",
          "name": "",
          "type": "address"
        }
      ],
      "name": "balances",
      "outputs": [
        {
          "internalType": "uint256",
          "name": "",
          "type": "uint256"
        }
      ],
      "stateMutability": "view",
      "type": "function"
    },
    {
      "inputs": [
        {
          "internalType": "address[]",
          "name": "recipients",
          "type": "address[]"
        },
        {
          "internalType": "uint256[]",
          "name": "amounts",
          "type": "uint256[]"
        },
        {
          "internalType": "bytes32[]",
          "name": "taskRefs",
          "type": "bytes32[]"
        }
      ],
      "name": "batchSettle",
      "outputs": [],
      "stateMutability": "nonpayable",
      "type": "function"
    },
    {
      "inputs": [],
      "name": "deposit",
      "outputs": [],
      "stateMutability": "payable",
      "type": "function"
    },
    {
      "inputs": [],
      "name": "feeRecipient",
      "outputs": [
        {
          "internalType": "address",
          "name": "",
          "type": "address"
        }
      ],
      "stateMutability": "view",
      "type": "function"
    },
    {
      "inputs": [
        {
          "internalType": "address",
          "name": "user",
          "type": "address"
        }
      ],
      "name": "getBalance",
      "outputs": [
        {
          "internalType": "uint256",
          "name": "",
          "type": "uint256"
        }
      ],
      "stateMutability": "view",
      "type": "function"
    },
    {
      "inputs": [
        {
          "internalType": "uint256",
          "name": "paymentId",
          "type": "uint256"
        }
      ],
      "name": "getPayment",
      "outputs": [
        {
          "components": [
            {
              "internalType": "uint256",
              "name": "id",
              "type": "uint256"
            },
            {
              "internalType": "address",
              "name": "from",
              "type": "address"
            },
            {
              "internalType": "address",
              "name": "to",
              "type": "address"
            },
            {
              "internalType": "uint256",
              "name": "amount",
              "type": "uint256"
            },
            {
              "internalType": "uint256",
              "name": "timestamp",
              "type": "uint256"
            },
            {
              "internalType": "enum PaymentSettlement.PaymentType",
              "name": "paymentType",
              "type": "uint8"
            },
            {
              "internalType": "bytes32",
              "name": "taskRef",
              "type": "bytes32"
            }
          ],
          "internalType": "struct PaymentSettlement.Payment",
          "name": "",
          "type": "tuple"
        }
      ],
      "stateMutability": "view",
      "type": "function"
    },
    {
      "inputs": [
        {
          "internalType": "address",
          "name": "user",
          "type": "address"
        }
      ],
      "name": "getUserPaymentCount",
      "outputs": [
        {
          "internalType": "uint256",
          "name": "",
          "type": "uint256"
        }
      ],
      "stateMutability": "view",
      "type": "function"
    },
    {
      "inputs": [],
      "name": "orchestrator",
      "outputs": [
        {
          "internalType": "address",
          "name": "",
          "type": "address"
        }
      ],
      "stateMutability": "view",
      "type": "function"
    },
    {
      "inputs": [
        {
          "internalType": "address",
          "name": "to",
          "type": "address"
        },
        {
          "internalType": "uint256",
          "name": "amount",
          "type": "uint256"
        },
        {
          "internalType": "bytes32",
          "name": "taskRef",
          "type": "bytes32"
        }
      ],
      "name": "pay",
      "outputs": [],
      "stateMutability": "nonpayable",
      "type": "function"
    },
    {
      "inputs": [],
      "name": "paymentCounter",
      "outputs": [
        {
          "internalType": "uint256",
          "name": "",
          "type": "uint256"
        }
      ],
      "stateMutability": "view",
      "type": "function"
    },
    {
      "inputs": [
        {
          "internalType": "uint256",
          "name": "",
          "type": "uint256"
        }
      ],
      "name": "payments",
      "outputs": [
        {
          "internalType": "uint256",
          "name": "id",
          "type": "uint256"
        },
        {
          "internalType": "address",
          "name": "from",
          "type": "address"
        },
        {
          "internalType": "address",
          "name": "to",
          "type": "address"
        },
        {
          "internalType": "uint256",
          "name": "amount",
          "type": "uint256"
        },
        {
          "internalType": "uint256",
          "name": "timestamp",
          "type": "uint256"
        },
        {
          "internalType": "enum PaymentSettlement.PaymentType",
          "name": "paymentType",
          "type": "uint8"
        },
        {
          "internalType": "bytes32",
          "name": "taskRef",
          "type": "bytes32"
        }
      ],
      "stateMutability": "view",
      "type": "function"
    },
    {
      "inputs": [],
      "name": "platformFee",
      "outputs": [
        {
          "internalType": "uint256",
          "name": "",
          "type": "uint256"
        }
      ],
      "stateMutability": "view",
      "type": "function"
    },
    {
      "inputs": [
        {
          "internalType": "address",
          "name": "newFeeRecipient",
          "type": "address"
        }
      ],
      "name": "setFeeRecipient",
      "outputs": [],
      "stateMutability": "nonpayable",
      "type": "function"
    },
    {
      "inputs": [
        {
          "internalType": "uint256",
          "name": "newFee",
          "type": "uint256"
        }
      ],
      "name": "setPlatformFee",
      "outputs": [],
      "stateMutability": "nonpayable",
      "type": "function"
    },
    {
      "inputs": [
        {
          "internalType": "address",
          "name": "newOrchestrator",
          "type": "address"
        }
      ],
      "name": "updateOrchestrator",
      "outputs": [],
      "stateMutability": "nonpayable",
      "type": "function"
    },
    {
      "inputs": [
        {
          "internalType": "address",
          "name": "",
          "type": "address"
        },
        {
          "internalType": "uint256",
          "name": "",
          "type": "uint256"
        }
      ],
      "name": "userPayments",
      "outputs": [
        {
          "internalType": "uint256",
          "name": "",
          "type": "uint256"
        }
      ],
      "stateMutability": "view",
      "type": "function"
    },
    {
      "inputs": [
        {
          "internalType": "uint256",
          "name": "amount",
          "type": "uint256"
        }
      ],
      "name": "withdraw",
      "outputs": [],
      "stateMutability": "nonpayable",
      "type": "function"
    },
    {
      "stateMutability": "payable",
      "type": "receive"
    }
  ],
  "bytecode": "0x6080604052606460055534801561001557600080fd5b5033600460006101000a81548173ffffffffffffffffffffffffffffffffffffffff021916908373ffffffffffffffffffffffffffffffffffffffff16021790555033600660006101000a81548173ffffffffffffffffffffffffffffffffffffffff021916908373ffffffffffffffffffffffffffffffffffffffff16021790555061228b806100a76000396000f3fe6080604052600436106101025760003560e01c80637da382ab116100955780638d8bb213116100645780638d8bb2131461040e578063b74795d914610437578063d0e30db014610462578063e74b981b1461046c578063f8b2cb4f14610495576101ad565b80637da382ab146103285780638362492f1461035157806387d817891461038e5780638cfeab35146103d1576101ad565b80633280a836116100d15780633280a8361461026c57806346904840146102a95780635e5571ac146102d457806376840b60146102fd576101ad565b806312e8e2c3146101b257806326232a2e146101db57806327e235e3146102065780632e1a7d4d14610243576101ad565b366101ad5734600360003373ffffffffffffffffffffffffffffffffffffffff1673ffffffffffffffffffffffffffffffffffffffff16815260200190815260200160002060008282546101569190611868565b925050819055503373ffffffffffffffffffffffffffffffffffffffff167f2da466a7b24304f47e87fa2e1e5a81b9831ce54fec19055ce277ca2f39ba42c4346040516101a391906118ab565b60405180910390a2005b600080fd5b3480156101be57600080fd5b506101d960048036038101906101d491906118fc565b6104d2565b005b3480156101e757600080fd5b506101f06105b1565b6040516101fd91906118ab565b60405180910390f35b34801561021257600080fd5b5061022d60048036038101906102289190611987565b6105b7565b60405161023a91906118ab565b60405180910390f35b34801561024f57600080fd5b5061026a600480360381019061026591906118fc565b6105cf565b005b34801561027857600080fd5b50610293600480360381019061028e91906118fc565b61073f565b6040516102a09190611af0565b60405180910390f35b3480156102b557600080fd5b506102be61087b565b6040516102cb9190611b1a565b60405180910390f35b3480156102e057600080fd5b506102fb60048036038101906102f69190611b61565b6108a1565b005b34801561030957600080fd5b50610312610dac565b60405161031f91906118ab565b60405180910390f35b34801561033457600080fd5b5061034f600480360381019061034a9190611cc5565b610db2565b005b34801561035d57600080fd5b5061037860048036038101906103739190611987565b6113a5565b60405161038591906118ab565b60405180910390f35b34801561039a57600080fd5b506103b560048036038101906103b091906118fc565b6113f1565b6040516103c89796959493929190611d97565b60405180910390f35b3480156103dd57600080fd5b506103f860048036038101906103f39190611e06565b611480565b60405161040591906118ab565b60405180910390f35b34801561041a57600080fd5b5061043560048036038101906104309190611987565b6114b1565b005b34801561044357600080fd5b5061044c611585565b6040516104599190611b1a565b60405180910390f35b61046a6115ab565b005b34801561047857600080fd5b50610493600480360381019061048e9190611987565b611694565b005b3480156104a157600080fd5b506104bc60048036038101906104b79190611987565b611768565b6040516104c991906118ab565b60405180910390f35b600460009054906101000a900473ffffffffffffffffffffffffffffffffffffffff1673ffffffffffffffffffffffffffffffffffffffff163373ffffffffffffffffffffffffffffffffffffffff1614610562576040517f08c379a000000000000000000000000000000000000000000000000000000000815260040161055990611ea3565b60405180910390fd5b6103e88111156105a7576040517f08c379a000000000000000000000000000000000000000000000000000000000815260040161059e90611f0f565b60405180910390fd5b8060058190555050565b60055481565b60036020528060005260406000206000915090505481565b80600360003373ffffffffffffffffffffffffffffffffffffffff1673ffffffffffffffffffffffffffffffffffffffff168152602001908152602001600020541015610651576040517f08c379a000000000000000000000000000000000000000000000000000000000815260040161064890611f7b565b60405180910390fd5b80600360003373ffffffffffffffffffffffffffffffffffffffff1673ffffffffffffffffffffffffffffffffffffffff16815260200190815260200160002060008282546106a09190611f9b565b925050819055503373ffffffffffffffffffffffffffffffffffffffff166108fc829081150290604051600060405180830381858888f193505050501580156106ed573d6000803e3d6000fd5b503373ffffffffffffffffffffffffffffffffffffffff167f7084f5476618d8e60b11ef0d7d3f06914655adb8793e28ff7f018d4c76d505d58260405161073491906118ab565b60405180910390a250565b6107476117b1565b600160008381526020019081526020016000206040518060e0016040529081600082015481526020016001820160009054906101000a900473ffffffffffffffffffffffffffffffffffffffff1673ffffffffffffffffffffffffffffffffffffffff1673ffffffffffffffffffffffffffffffffffffffff1681526020016002820160009054906101000a900473ffffffffffffffffffffffffffffffffffffffff1673ffffffffffffffffffffffffffffffffffffffff1673ffffffffffffffffffffffffffffffffffffffff16815260200160038201548152602001600482015481526020016005820160009054906101000a900460ff166003811115610854576108536119d2565b5b6003811115610866576108656119d2565b5b81526020016006820154815250509050919050565b600660009054906101000a900473ffffffffffffffffffffffffffffffffffffffff1681565b81600360003373ffffffffffffffffffffffffffffffffffffffff1673ffffffffffffffffffffffffffffffffffffffff168152602001908152602001600020541015610923576040517f08c379a000000000000000000000000000000000000000000000000000000000815260040161091a90611f7b565b60405180910390fd5b600073ffffffffffffffffffffffffffffffffffffffff168373ffffffffffffffffffffffffffffffffffffffff1603610992576040517f08c379a00000000000000000000000000000000000000000000000000000000081526004016109899061201b565b60405180910390fd5b6000612710600554846109a5919061203b565b6109af91906120ac565b9050600081846109bf9190611f9b565b905083600360003373ffffffffffffffffffffffffffffffffffffffff1673ffffffffffffffffffffffffffffffffffffffff1681526020019081526020016000206000828254610a109190611f9b565b9250508190555080600360008773ffffffffffffffffffffffffffffffffffffffff1673ffffffffffffffffffffffffffffffffffffffff1681526020019081526020016000206000828254610a669190611868565b925050819055508160036000600660009054906101000a900473ffffffffffffffffffffffffffffffffffffffff1673ffffffffffffffffffffffffffffffffffffffff1673ffffffffffffffffffffffffffffffffffffffff1681526020019081526020016000206000828254610ade9190611868565b92505081905550600080815480929190610af7906120dd565b91905055506040518060e0016040528060005481526020013373ffffffffffffffffffffffffffffffffffffffff1681526020018673ffffffffffffffffffffffffffffffffffffffff16815260200182815260200142815260200160006003811115610b6757610b666119d2565b5b81526020018481525060016000805481526020019081526020016000206000820151816000015560208201518160010160006101000a81548173ffffffffffffffffffffffffffffffffffffffff021916908373ffffffffffffffffffffffffffffffffffffffff16021790555060408201518160020160006101000a81548173ffffffffffffffffffffffffffffffffffffffff021916908373ffffffffffffffffffffffffffffffffffffffff160217905550606082015181600301556080820151816004015560a08201518160050160006101000a81548160ff02191690836003811115610c5b57610c5a6119d2565b5b021790555060c08201518160060155905050600260003373ffffffffffffffffffffffffffffffffffffffff1673ffffffffffffffffffffffffffffffffffffffff1681526020019081526020016000206000549080600181540180825580915050600190039060005260206000200160009091909190915055600260008673ffffffffffffffffffffffffffffffffffffffff1673ffffffffffffffffffffffffffffffffffffffff16815260200190815260200160002060005490806001815401808255809150506001900390600052602060002001600090919091909150558473ffffffffffffffffffffffffffffffffffffffff163373ffffffffffffffffffffffffffffffffffffffff166000547fd51bb0381ff8d9476c9493a30eafdb1966dca4b0c0db1a2d4e244a3a8b16ffb884604051610d9d91906118ab565b60405180910390a45050505050565b60005481565b600460009054906101000a900473ffffffffffffffffffffffffffffffffffffffff1673ffffffffffffffffffffffffffffffffffffffff163373ffffffffffffffffffffffffffffffffffffffff1614610e42576040517f08c379a0000000000000000000000000000000000000000000000000000000008152600401610e3990611ea3565b60405180910390fd5b838390508686905014610e8a576040517f08c379a0000000000000000000000000000000000000000000000000000000008152600401610e8190612171565b60405180910390fd5b818190508686905014610ed2576040517f08c379a0000000000000000000000000000000000000000000000000000000008152600401610ec990612171565b60405180910390fd5b6000805b8787905081101561135f57600073ffffffffffffffffffffffffffffffffffffffff16888883818110610f0c57610f0b612191565b5b9050602002016020810190610f219190611987565b73ffffffffffffffffffffffffffffffffffffffff1603610f77576040517f08c379a0000000000000000000000000000000000000000000000000000000008152600401610f6e9061201b565b60405180910390fd5b600080815480929190610f89906120dd565b91905055506040518060e0016040528060005481526020013073ffffffffffffffffffffffffffffffffffffffff168152602001898984818110610fd057610fcf612191565b5b9050602002016020810190610fe59190611987565b73ffffffffffffffffffffffffffffffffffffffff16815260200187878481811061101357611012612191565b5b90506020020135815260200142815260200160016003811115611039576110386119d2565b5b815260200185858481811061105157611050612191565b5b9050602002013581525060016000805481526020019081526020016000206000820151816000015560208201518160010160006101000a81548173ffffffffffffffffffffffffffffffffffffffff021916908373ffffffffffffffffffffffffffffffffffffffff16021790555060408201518160020160006101000a81548173ffffffffffffffffffffffffffffffffffffffff021916908373ffffffffffffffffffffffffffffffffffffffff160217905550606082015181600301556080820151816004015560a08201518160050160006101000a81548160ff02191690836003811115611146576111456119d2565b5b021790555060c0820151816006015590505085858281811061116b5761116a612191565b5b90506020020135600360008a8a8581811061118957611188612191565b5b905060200201602081019061119e9190611987565b73ffffffffffffffffffffffffffffffffffffffff1673ffffffffffffffffffffffffffffffffffffffff16815260200190815260200160002060008282546111e79190611868565b925050819055506002600089898481811061120557611204612191565b5b905060200201602081019061121a9190611987565b73ffffffffffffffffffffffffffffffffffffffff1673ffffffffffffffffffffffffffffffffffffffff16815260200190815260200160002060005490806001815401808255809150506001900390600052602060002001600090919091909150558585828181106112905761128f612191565b5b90506020020135826112a29190611868565b91508787828181106112b7576112b6612191565b5b90506020020160208101906112cc9190611987565b73ffffffffffffffffffffffffffffffffffffffff163073ffffffffffffffffffffffffffffffffffffffff166000547fd51bb0381ff8d9476c9493a30eafdb1966dca4b0c0db1a2d4e244a3a8b16ffb88989868181106113305761132f612191565b5b9050602002013560405161134491906118ab565b60405180910390a48080611357906120dd565b915050610ed6565b507f0a0af9013a8d9968e4532086fbc7137cf11ee8b8f9d57c8e5e89589b4167390881888890506040516113949291906121c0565b60405180910390a150505050505050565b6000600260008373ffffffffffffffffffffffffffffffffffffffff1673ffffffffffffffffffffffffffffffffffffffff168152602001908152602001600020805490509050919050565b60016020528060005260406000206000915090508060000154908060010160009054906101000a900473ffffffffffffffffffffffffffffffffffffffff16908060020160009054906101000a900473ffffffffffffffffffffffffffffffffffffffff16908060030154908060040154908060050160009054906101000a900460ff16908060060154905087565b6002602052816000526040600020818154811061149c57600080fd5b90600052602060002001600091509150505481565b600460009054906101000a900473ffffffffffffffffffffffffffffffffffffffff1673ffffffffffffffffffffffffffffffffffffffff163373ffffffffffffffffffffffffffffffffffffffff1614611541576040517f08c379a000000000000000000000000000000000000000000000000000000000815260040161153890611ea3565b60405180910390fd5b80600460006101000a81548173ffffffffffffffffffffffffffffffffffffffff021916908373ffffffffffffffffffffffffffffffffffffffff16021790555050565b600460009054906101000a900473ffffffffffffffffffffffffffffffffffffffff1681565b600034116115ee576040517f08c379a00000000000000000000000000000000000000000000000000000000081526004016115e590612235565b60405180910390fd5b34600360003373ffffffffffffffffffffffffffffffffffffffff1673ffffffffffffffffffffffffffffffffffffffff168152602001908152602001600020600082825461163d9190611868565b925050819055503373ffffffffffffffffffffffffffffffffffffffff167f2da466a7b24304f47e87fa2e1e5a81b9831ce54fec19055ce277ca2f39ba42c43460405161168a91906118ab565b60405180910390a2565b600460009054906101000a900473ffffffffffffffffffffffffffffffffffffffff1673ffffffffffffffffffffffffffffffffffffffff163373ffffffffffffffffffffffffffffffffffffffff1614611724576040517f08c379a000000000000000000000000000000000000000000000000000000000815260040161171b90611ea3565b60405180910390fd5b80600660006101000a81548173ffffffffffffffffffffffffffffffffffffffff021916908373ffffffffffffffffffffffffffffffffffffffff16021790555050565b6000600360008373ffffffffffffffffffffffffffffffffffffffff1673ffffffffffffffffffffffffffffffffffffffff168152602001908152602001600020549050919050565b6040518060e0016040528060008152602001600073ffffffffffffffffffffffffffffffffffffffff168152602001600073ffffffffffffffffffffffffffffffffffffffff16815260200160008152602001600081526020016000600381111561181f5761181e6119d2565b5b8152602001600080191681525090565b6000819050919050565b7f4e487b7100000000000000000000000000000000000000000000000000000000600052601160045260246000fd5b60006118738261182f565b915061187e8361182f565b925082820190508082111561189657611895611839565b5b92915050565b6118a58161182f565b82525050565b60006020820190506118c0600083018461189c565b92915050565b600080fd5b600080fd5b6118d98161182f565b81146118e457600080fd5b50565b6000813590506118f6816118d0565b92915050565b600060208284031215611912576119116118c6565b5b6000611920848285016118e7565b91505092915050565b600073ffffffffffffffffffffffffffffffffffffffff82169050919050565b600061195482611929565b9050919050565b61196481611949565b811461196f57600080fd5b50565b6000813590506119818161195b565b92915050565b60006020828403121561199d5761199c6118c6565b5b60006119ab84828501611972565b91505092915050565b6119bd8161182f565b82525050565b6119cc81611949565b82525050565b7f4e487b7100000000000000000000000000000000000000000000000000000000600052602160045260246000fd5b60048110611a1257611a116119d2565b5b50565b6000819050611a2382611a01565b919050565b6000611a3382611a15565b9050919050565b611a4381611a28565b82525050565b6000819050919050565b611a5c81611a49565b82525050565b60e082016000820151611a7860008501826119b4565b506020820151611a8b60208501826119c3565b506040820151611a9e60408501826119c3565b506060820151611ab160608501826119b4565b506080820151611ac460808501826119b4565b5060a0820151611ad760a0850182611a3a565b5060c0820151611aea60c0850182611a53565b50505050565b600060e082019050611b056000830184611a62565b92915050565b611b1481611949565b82525050565b6000602082019050611b2f6000830184611b0b565b92915050565b611b3e81611a49565b8114611b4957600080fd5b50565b600081359050611b5b81611b35565b92915050565b600080600060608486031215611b7a57611b796118c6565b5b6000611b8886828701611972565b9350506020611b99868287016118e7565b9250506040611baa86828701611b4c565b9150509250925092565b600080fd5b600080fd5b600080fd5b60008083601f840112611bd957611bd8611bb4565b5b8235905067ffffffffffffffff811115611bf657611bf5611bb9565b5b602083019150836020820283011115611c1257611c11611bbe565b5b9250929050565b60008083601f840112611c2f57611c2e611bb4565b5b8235905067ffffffffffffffff811115611c4c57611c4b611bb9565b5b602083019150836020820283011115611c6857611c67611bbe565b5b9250929050565b60008083601f840112611c8557611c84611bb4565b5b8235905067ffffffffffffffff811115611ca257611ca1611bb9565b5b602083019150836020820283011115611cbe57611cbd611bbe565b5b9250929050565b60008060008060008060608789031215611ce257611ce16118c6565b5b600087013567ffffffffffffffff811115611d0057611cff6118cb565b5b611d0c89828a01611bc3565b9650965050602087013567ffffffffffffffff811115611d2f57611d2e6118cb565b5b611d3b89828a01611c19565b9450945050604087013567ffffffffffffffff811115611d5e57611d5d6118cb565b5b611d6a89828a01611c6f565b92509250509295509295509295565b611d8281611a28565b82525050565b611d9181611a49565b82525050565b600060e082019050611dac600083018a61189c565b611db96020830189611b0b565b611dc66040830188611b0b565b611dd3606083018761189c565b611de0608083018661189c565b611ded60a0830185611d79565b611dfa60c0830184611d88565b98975050505050505050565b60008060408385031215611e1d57611e1c6118c6565b5b6000611e2b85828601611972565b9250506020611e3c858286016118e7565b9150509250929050565b600082825260208201905092915050565b7f4f6e6c79206f7263686573747261746f72000000000000000000000000000000600082015250565b6000611e8d601183611e46565b9150611e9882611e57565b602082019050919050565b60006020820190508181036000830152611ebc81611e80565b9050919050565b7f46656520746f6f20686967680000000000000000000000000000000000000000600082015250565b6000611ef9600c83611e46565b9150611f0482611ec3565b602082019050919050565b60006020820190508181036000830152611f2881611eec565b9050919050565b7f496e73756666696369656e742062616c616e6365000000000000000000000000600082015250565b6000611f65601483611e46565b9150611f7082611f2f565b602082019050919050565b60006020820190508181036000830152611f9481611f58565b9050919050565b6000611fa68261182f565b9150611fb18361182f565b9250828203905081811115611fc957611fc8611839565b5b92915050565b7f496e76616c696420726563697069656e74000000000000000000000000000000600082015250565b6000612005601183611e46565b915061201082611fcf565b602082019050919050565b6000602082019050818103600083015261203481611ff8565b9050919050565b60006120468261182f565b91506120518361182f565b925082820261205f8161182f565b9150828204841483151761207657612075611839565b5b5092915050565b7f4e487b7100000000000000000000000000000000000000000000000000000000600052601260045260246000fd5b60006120b78261182f565b91506120c28361182f565b9250826120d2576120d161207d565b5b828204905092915050565b60006120e88261182f565b91507fffffffffffffffffffffffffffffffffffffffffffffffffffffffffffffffff820361211a57612119611839565b5b600182019050919050565b7f4172726179206d69736d61746368000000000000000000000000000000000000600082015250565b600061215b600e83611e46565b915061216682612125565b602082019050919050565b6000602082019050818103600083015261218a8161214e565b9050919050565b7f4e487b7100000000000000000000000000000000000000000000000000000000600052603260045260246000fd5b60006040820190506121d5600083018561189c565b6121e2602083018461189c565b9392505050565b7f4d7573742073656e642066756e64730000000000000000000000000000000000600082015250565b600061221f600f83611e46565b915061222a826121e9565b602082019050919050565b6000602082019050818103600083015261224e81612212565b905091905056fea2646970667358221220927205d6e8ebd642c20aa5beb4daa3f48f9d96f7ea75145d79e01243b5d0f6f564736f6c63430008140033",
  "linkReferences": {},
  "deployedLinkReferences": {}
}